{
  "contractName": "RedPacket",
  "abi": [
    {
      "inputs": [
        {
          "internalType": "uint256",
          "name": "",
          "type": "uint256"
        },
        {
          "internalType": "address",
          "name": "",
          "type": "address"
        }
      ],
      "name": "packetClaims",
      "outputs": [
        {
          "internalType": "bool",
          "name": "",
          "type": "bool"
        }
      ],
      "stateMutability": "view",
      "type": "function",
      "constant": true
    },
    {
      "inputs": [],
      "name": "packetId",
      "outputs": [
        {
          "internalType": "uint256",
          "name": "",
          "type": "uint256"
        }
      ],
      "stateMutability": "view",
      "type": "function",
      "constant": true
    },
    {
      "inputs": [
        {
          "internalType": "uint256",
          "name": "",
          "type": "uint256"
        }
      ],
      "name": "packets",
      "outputs": [
        {
          "internalType": "address",
          "name": "creator",
          "type": "address"
        },
        {
          "internalType": "uint256",
          "name": "amount",
          "type": "uint256"
        },
        {
          "internalType": "uint256",
          "name": "count",
          "type": "uint256"
        }
      ],
      "stateMutability": "view",
      "type": "function",
      "constant": true
    },
    {
      "inputs": [],
      "name": "getBalance",
      "outputs": [
        {
          "internalType": "uint256",
          "name": "",
          "type": "uint256"
        }
      ],
      "stateMutability": "view",
      "type": "function",
      "constant": true
    },
    {
      "inputs": [
        {
          "internalType": "uint256",
          "name": "amount",
          "type": "uint256"
        },
        {
          "internalType": "uint256",
          "name": "count",
          "type": "uint256"
        }
      ],
      "name": "createPacket",
      "outputs": [],
      "stateMutability": "payable",
      "type": "function",
      "payable": true
    },
    {
      "inputs": [
        {
          "internalType": "uint256",
          "name": "_packetId",
          "type": "uint256"
        }
      ],
      "name": "claimPacket",
      "outputs": [],
      "stateMutability": "nonpayable",
      "type": "function"
    },
    {
      "inputs": [],
      "name": "getPackets",
      "outputs": [
        {
          "components": [
            {
              "internalType": "address",
              "name": "creator",
              "type": "address"
            },
            {
              "internalType": "uint256",
              "name": "amount",
              "type": "uint256"
            },
            {
              "internalType": "uint256",
              "name": "count",
              "type": "uint256"
            },
            {
              "internalType": "uint256",
              "name": "id",
              "type": "uint256"
            }
          ],
          "internalType": "struct RedPacket.PacketInfo[]",
          "name": "",
          "type": "tuple[]"
        }
      ],
      "stateMutability": "view",
      "type": "function",
      "constant": true
    }
  ],
  "bytecode": "0x608060405234801561001057600080fd5b50610e6b806100206000396000f3fe6080604052600436106100705760003560e01c8063273781951161004e57806327378195146100f957806399579ffb14610124578063a893e33e1461014d578063d0a9e0c01461017857610070565b80630c321868146100755780630cfeee1f1461009157806312065fe0146100ce575b600080fd5b61008f600480360381019061008a91906107c7565b6101b7565b005b34801561009d57600080fd5b506100b860048036038101906100b39190610865565b610309565b6040516100c591906108c0565b60405180910390f35b3480156100da57600080fd5b506100e3610338565b6040516100f091906108ea565b60405180910390f35b34801561010557600080fd5b5061010e610340565b60405161011b91906108ea565b60405180910390f35b34801561013057600080fd5b5061014b60048036038101906101469190610905565b610346565b005b34801561015957600080fd5b5061016261058f565b60405161016f9190610a54565b60405180910390f35b34801561018457600080fd5b5061019f600480360381019061019a9190610905565b610704565b6040516101ae93929190610a85565b60405180910390f35b600082116101fa576040517f08c379a00000000000000000000000000000000000000000000000000000000081526004016101f190610b19565b60405180910390fd5b6000811161023d576040517f08c379a000000000000000000000000000000000000000000000000000000000815260040161023490610b85565b60405180910390fd5b81341461027f576040517f08c379a000000000000000000000000000000000000000000000000000000000815260040161027690610c17565b60405180910390fd5b600080600060025481526020019081526020016000209050338160000160006101000a81548173ffffffffffffffffffffffffffffffffffffffff021916908373ffffffffffffffffffffffffffffffffffffffff160217905550828160010181905550818160020181905550600260008154809291906102ff90610c66565b9190505550505050565b60016020528160005260406000206020528060005260406000206000915091509054906101000a900460ff1681565b600047905090565b60025481565b60008060008381526020019081526020016000209050600073ffffffffffffffffffffffffffffffffffffffff168160000160009054906101000a900473ffffffffffffffffffffffffffffffffffffffff1673ffffffffffffffffffffffffffffffffffffffff161415801561041857506001600083815260200190815260200160002060003373ffffffffffffffffffffffffffffffffffffffff1673ffffffffffffffffffffffffffffffffffffffff16815260200190815260200160002060009054906101000a900460ff16155b8015610428575060008160020154115b8015610438575060008160010154115b610477576040517f08c379a000000000000000000000000000000000000000000000000000000000815260040161046e90610cfa565b60405180910390fd5b6000600182600201541461049e57816002015482600101546104999190610d49565b6104a4565b81600101545b90508160020160008154809291906104bb90610d7a565b9190505550808260010160008282546104d49190610da3565b92505081905550600180600085815260200190815260200160002060003373ffffffffffffffffffffffffffffffffffffffff1673ffffffffffffffffffffffffffffffffffffffff16815260200190815260200160002060006101000a81548160ff0219169083151502179055503373ffffffffffffffffffffffffffffffffffffffff166108fc829081150290604051600060405180830381858888f19350505050158015610589573d6000803e3d6000fd5b50505050565b6060600060025467ffffffffffffffff8111156105af576105ae610dd7565b5b6040519080825280602002602001820160405280156105e857816020015b6105d561074e565b8152602001906001900390816105cd5790505b50905060005b6002548110156106fc5760008060008381526020019081526020016000209050600073ffffffffffffffffffffffffffffffffffffffff168160000160009054906101000a900473ffffffffffffffffffffffffffffffffffffffff1673ffffffffffffffffffffffffffffffffffffffff16146106e85760405180608001604052808260000160009054906101000a900473ffffffffffffffffffffffffffffffffffffffff1673ffffffffffffffffffffffffffffffffffffffff1681526020018260010154815260200182600201548152602001838152508383815181106106dc576106db610e06565b5b60200260200101819052505b5080806106f490610c66565b9150506105ee565b508091505090565b60006020528060005260406000206000915090508060000160009054906101000a900473ffffffffffffffffffffffffffffffffffffffff16908060010154908060020154905083565b6040518060800160405280600073ffffffffffffffffffffffffffffffffffffffff1681526020016000815260200160008152602001600081525090565b600080fd5b6000819050919050565b6107a481610791565b81146107af57600080fd5b50565b6000813590506107c18161079b565b92915050565b600080604083850312156107de576107dd61078c565b5b60006107ec858286016107b2565b92505060206107fd858286016107b2565b9150509250929050565b600073ffffffffffffffffffffffffffffffffffffffff82169050919050565b600061083282610807565b9050919050565b61084281610827565b811461084d57600080fd5b50565b60008135905061085f81610839565b92915050565b6000806040838503121561087c5761087b61078c565b5b600061088a858286016107b2565b925050602061089b85828601610850565b9150509250929050565b60008115159050919050565b6108ba816108a5565b82525050565b60006020820190506108d560008301846108b1565b92915050565b6108e481610791565b82525050565b60006020820190506108ff60008301846108db565b92915050565b60006020828403121561091b5761091a61078c565b5b6000610929848285016107b2565b91505092915050565b600081519050919050565b600082825260208201905092915050565b6000819050602082019050919050565b61096781610827565b82525050565b61097681610791565b82525050565b608082016000820151610992600085018261095e565b5060208201516109a5602085018261096d565b5060408201516109b8604085018261096d565b5060608201516109cb606085018261096d565b50505050565b60006109dd838361097c565b60808301905092915050565b6000602082019050919050565b6000610a0182610932565b610a0b818561093d565b9350610a168361094e565b8060005b83811015610a47578151610a2e88826109d1565b9750610a39836109e9565b925050600181019050610a1a565b5085935050505092915050565b60006020820190508181036000830152610a6e81846109f6565b905092915050565b610a7f81610827565b82525050565b6000606082019050610a9a6000830186610a76565b610aa760208301856108db565b610ab460408301846108db565b949350505050565b600082825260208201905092915050565b7f416d6f756e74206d7573742062652067726561746572207468616e2030000000600082015250565b6000610b03601d83610abc565b9150610b0e82610acd565b602082019050919050565b60006020820190508181036000830152610b3281610af6565b9050919050565b7f436f756e74206d7573742062652067726561746572207468616e203000000000600082015250565b6000610b6f601c83610abc565b9150610b7a82610b39565b602082019050919050565b60006020820190508181036000830152610b9e81610b62565b9050919050565b7f416d6f756e74206d75737420626520657175616c20746f206d73672e76616c7560008201527f6500000000000000000000000000000000000000000000000000000000000000602082015250565b6000610c01602183610abc565b9150610c0c82610ba5565b604082019050919050565b60006020820190508181036000830152610c3081610bf4565b9050919050565b7f4e487b7100000000000000000000000000000000000000000000000000000000600052601160045260246000fd5b6000610c7182610791565b91507fffffffffffffffffffffffffffffffffffffffffffffffffffffffffffffffff8203610ca357610ca2610c37565b5b600182019050919050565b7f496e76616c696420636c61696d00000000000000000000000000000000000000600082015250565b6000610ce4600d83610abc565b9150610cef82610cae565b602082019050919050565b60006020820190508181036000830152610d1381610cd7565b9050919050565b7f4e487b7100000000000000000000000000000000000000000000000000000000600052601260045260246000fd5b6000610d5482610791565b9150610d5f83610791565b925082610d6f57610d6e610d1a565b5b828204905092915050565b6000610d8582610791565b915060008203610d9857610d97610c37565b5b600182039050919050565b6000610dae82610791565b9150610db983610791565b925082821015610dcc57610dcb610c37565b5b828203905092915050565b7f4e487b7100000000000000000000000000000000000000000000000000000000600052604160045260246000fd5b7f4e487b7100000000000000000000000000000000000000000000000000000000600052603260045260246000fdfea264697066735822122089fd3eb9af23662bef55a554daf57ea2c8cf2240a5cdd9bbb7ab45e017cc974964736f6c634300080d0033",
  "immutableReferences": {},
  "source": "// SPDX-License-Identifier: MIT\r\npragma solidity ^0.8.13;\r\n\r\ncontract RedPacket {\r\n    // \r\n    mapping(uint256 => Packet) public packets;\r\n    // \r\n    mapping(uint256 => mapping(address => bool)) public packetClaims;\r\n    // ID\r\n    uint256 public packetId;\r\n    // \r\n    struct Packet {\r\n        address creator; // \r\n        uint256 amount; // \r\n        uint256 count; // \r\n    }\r\n    // \r\n    struct PacketInfo {\r\n        address creator;\r\n        uint256 amount;\r\n        uint256 count;\r\n        uint256 id;\r\n    }\r\n\r\n    // \r\n    function getBalance() public view returns (uint256) {\r\n        return address(this).balance;\r\n    }\r\n\r\n    // \r\n    function createPacket(uint256 amount, uint256 count) public payable {\r\n        require(amount > 0, \"Amount must be greater than 0\");\r\n        require(count > 0, \"Count must be greater than 0\");\r\n        require(msg.value == amount, \"Amount must be equal to msg.value\");\r\n\r\n        // \r\n        Packet storage newPacket = packets[packetId];\r\n        newPacket.creator = msg.sender;\r\n        newPacket.amount = amount;\r\n        newPacket.count = count;\r\n\r\n        packetId++;\r\n    }\r\n\r\n    // \r\n    function claimPacket(uint256 _packetId) public {\r\n        // \r\n        Packet storage packet = packets[_packetId];\r\n\r\n        require(\r\n            packet.creator != address(0) &&\r\n                !packetClaims[_packetId][msg.sender] &&\r\n                packet.count > 0 &&\r\n                packet.amount > 0,\r\n            \"Invalid claim\"\r\n        );\r\n\r\n        // \r\n        uint256 claimAmount = packet.count == 1\r\n            ? packet.amount\r\n            : packet.amount / packet.count;\r\n\r\n        // \r\n        packet.count--;\r\n        packet.amount -= claimAmount;\r\n\r\n        // \r\n        packetClaims[_packetId][msg.sender] = true;\r\n\r\n        // \r\n        payable(msg.sender).transfer(claimAmount);\r\n    }\r\n\r\n    // \r\n    function getPackets() public view returns (PacketInfo[] memory) {\r\n        // \r\n        PacketInfo[] memory result = new PacketInfo[](packetId);\r\n\r\n        // \r\n        for (uint256 i = 0; i < packetId; i++) {\r\n            Packet storage packet = packets[i];\r\n\r\n            // \r\n            if (packet.creator != address(0)) {\r\n                result[i] = PacketInfo({\r\n                    creator: packet.creator,\r\n                    amount: packet.amount,\r\n                    count: packet.count,\r\n                    id: i\r\n                });\r\n            }\r\n        }\r\n\r\n        return result;\r\n    }\r\n}\r\n",
  "sourcePath": "E:\\projects\\red-packet\\red-packet-solidity\\contracts\\RedPacket.sol",
  "compiler": {
    "name": "solc",
    "version": "0.8.13+commit.abaa5c0e.Emscripten.clang"
  },
  "schemaVersion": "3.4.16",
  "updatedAt": "2025-06-06T00:11:45.121Z",
  "networkType": "ethereum",
  "devdoc": {
    "kind": "dev",
    "methods": {},
    "version": 1
  },
  "userdoc": {
    "kind": "user",
    "methods": {},
    "version": 1
  }
}