{
  "contractName": "RedPacket",
  "abi": [
    {
      "inputs": [
        {
          "internalType": "uint256",
          "name": "",
          "type": "uint256"
        },
        {
          "internalType": "address",
          "name": "",
          "type": "address"
        }
      ],
      "name": "packetClaims",
      "outputs": [
        {
          "internalType": "bool",
          "name": "",
          "type": "bool"
        }
      ],
      "stateMutability": "view",
      "type": "function",
      "constant": true
    },
    {
      "inputs": [],
      "name": "packetId",
      "outputs": [
        {
          "internalType": "uint256",
          "name": "",
          "type": "uint256"
        }
      ],
      "stateMutability": "view",
      "type": "function",
      "constant": true
    },
    {
      "inputs": [
        {
          "internalType": "uint256",
          "name": "",
          "type": "uint256"
        }
      ],
      "name": "packets",
      "outputs": [
        {
          "internalType": "address",
          "name": "creator",
          "type": "address"
        },
        {
          "internalType": "uint256",
          "name": "amount",
          "type": "uint256"
        },
        {
          "internalType": "uint256",
          "name": "count",
          "type": "uint256"
        },
        {
          "internalType": "uint256",
          "name": "total",
          "type": "uint256"
        }
      ],
      "stateMutability": "view",
      "type": "function",
      "constant": true
    },
    {
      "inputs": [],
      "name": "getBalance",
      "outputs": [
        {
          "internalType": "uint256",
          "name": "",
          "type": "uint256"
        }
      ],
      "stateMutability": "view",
      "type": "function",
      "constant": true
    },
    {
      "inputs": [
        {
          "internalType": "uint256",
          "name": "amount",
          "type": "uint256"
        },
        {
          "internalType": "uint256",
          "name": "count",
          "type": "uint256"
        }
      ],
      "name": "createPacket",
      "outputs": [],
      "stateMutability": "payable",
      "type": "function",
      "payable": true
    },
    {
      "inputs": [
        {
          "internalType": "uint256",
          "name": "_packetId",
          "type": "uint256"
        }
      ],
      "name": "claimPacket",
      "outputs": [],
      "stateMutability": "nonpayable",
      "type": "function"
    },
    {
      "inputs": [],
      "name": "getPackets",
      "outputs": [
        {
          "components": [
            {
              "internalType": "address",
              "name": "creator",
              "type": "address"
            },
            {
              "internalType": "uint256",
              "name": "amount",
              "type": "uint256"
            },
            {
              "internalType": "uint256",
              "name": "count",
              "type": "uint256"
            },
            {
              "internalType": "uint256",
              "name": "total",
              "type": "uint256"
            },
            {
              "internalType": "uint256",
              "name": "id",
              "type": "uint256"
            }
          ],
          "internalType": "struct RedPacket.PacketInfo[]",
          "name": "",
          "type": "tuple[]"
        }
      ],
      "stateMutability": "view",
      "type": "function",
      "constant": true
    }
  ],
  "bytecode": "0x608060405234801561001057600080fd5b50610ead806100206000396000f3fe6080604052600436106100705760003560e01c8063273781951161004e57806327378195146100f957806399579ffb14610124578063a893e33e1461014d578063d0a9e0c01461017857610070565b80630c321868146100755780630cfeee1f1461009157806312065fe0146100ce575b600080fd5b61008f600480360381019061008a91906107e8565b6101b8565b005b34801561009d57600080fd5b506100b860048036038101906100b39190610886565b610313565b6040516100c591906108e1565b60405180910390f35b3480156100da57600080fd5b506100e3610342565b6040516100f0919061090b565b60405180910390f35b34801561010557600080fd5b5061010e61034a565b60405161011b919061090b565b60405180910390f35b34801561013057600080fd5b5061014b60048036038101906101469190610926565b610350565b005b34801561015957600080fd5b50610162610599565b60405161016f9190610a88565b60405180910390f35b34801561018457600080fd5b5061019f600480360381019061019a9190610926565b610718565b6040516101af9493929190610ab9565b60405180910390f35b600082116101fb576040517f08c379a00000000000000000000000000000000000000000000000000000000081526004016101f290610b5b565b60405180910390fd5b6000811161023e576040517f08c379a000000000000000000000000000000000000000000000000000000000815260040161023590610bc7565b60405180910390fd5b813414610280576040517f08c379a000000000000000000000000000000000000000000000000000000000815260040161027790610c59565b60405180910390fd5b600080600060025481526020019081526020016000209050338160000160006101000a81548173ffffffffffffffffffffffffffffffffffffffff021916908373ffffffffffffffffffffffffffffffffffffffff1602179055508281600101819055508181600201819055508181600301819055506002600081548092919061030990610ca8565b9190505550505050565b60016020528160005260406000206020528060005260406000206000915091509054906101000a900460ff1681565b600047905090565b60025481565b60008060008381526020019081526020016000209050600073ffffffffffffffffffffffffffffffffffffffff168160000160009054906101000a900473ffffffffffffffffffffffffffffffffffffffff1673ffffffffffffffffffffffffffffffffffffffff161415801561042257506001600083815260200190815260200160002060003373ffffffffffffffffffffffffffffffffffffffff1673ffffffffffffffffffffffffffffffffffffffff16815260200190815260200160002060009054906101000a900460ff16155b8015610432575060008160020154115b8015610442575060008160010154115b610481576040517f08c379a000000000000000000000000000000000000000000000000000000000815260040161047890610d3c565b60405180910390fd5b600060018260020154146104a857816002015482600101546104a39190610d8b565b6104ae565b81600101545b90508160020160008154809291906104c590610dbc565b9190505550808260010160008282546104de9190610de5565b92505081905550600180600085815260200190815260200160002060003373ffffffffffffffffffffffffffffffffffffffff1673ffffffffffffffffffffffffffffffffffffffff16815260200190815260200160002060006101000a81548160ff0219169083151502179055503373ffffffffffffffffffffffffffffffffffffffff166108fc829081150290604051600060405180830381858888f19350505050158015610593573d6000803e3d6000fd5b50505050565b6060600060025467ffffffffffffffff8111156105b9576105b8610e19565b5b6040519080825280602002602001820160405280156105f257816020015b6105df610768565b8152602001906001900390816105d75790505b50905060005b6002548110156107105760008060008381526020019081526020016000209050600073ffffffffffffffffffffffffffffffffffffffff168160000160009054906101000a900473ffffffffffffffffffffffffffffffffffffffff1673ffffffffffffffffffffffffffffffffffffffff16146106fc576040518060a001604052808260000160009054906101000a900473ffffffffffffffffffffffffffffffffffffffff1673ffffffffffffffffffffffffffffffffffffffff168152602001826001015481526020018260020154815260200182600301548152602001838152508383815181106106f0576106ef610e48565b5b60200260200101819052505b50808061070890610ca8565b9150506105f8565b508091505090565b60006020528060005260406000206000915090508060000160009054906101000a900473ffffffffffffffffffffffffffffffffffffffff16908060010154908060020154908060030154905084565b6040518060a00160405280600073ffffffffffffffffffffffffffffffffffffffff168152602001600081526020016000815260200160008152602001600081525090565b600080fd5b6000819050919050565b6107c5816107b2565b81146107d057600080fd5b50565b6000813590506107e2816107bc565b92915050565b600080604083850312156107ff576107fe6107ad565b5b600061080d858286016107d3565b925050602061081e858286016107d3565b9150509250929050565b600073ffffffffffffffffffffffffffffffffffffffff82169050919050565b600061085382610828565b9050919050565b61086381610848565b811461086e57600080fd5b50565b6000813590506108808161085a565b92915050565b6000806040838503121561089d5761089c6107ad565b5b60006108ab858286016107d3565b92505060206108bc85828601610871565b9150509250929050565b60008115159050919050565b6108db816108c6565b82525050565b60006020820190506108f660008301846108d2565b92915050565b610905816107b2565b82525050565b600060208201905061092060008301846108fc565b92915050565b60006020828403121561093c5761093b6107ad565b5b600061094a848285016107d3565b91505092915050565b600081519050919050565b600082825260208201905092915050565b6000819050602082019050919050565b61098881610848565b82525050565b610997816107b2565b82525050565b60a0820160008201516109b3600085018261097f565b5060208201516109c6602085018261098e565b5060408201516109d9604085018261098e565b5060608201516109ec606085018261098e565b5060808201516109ff608085018261098e565b50505050565b6000610a11838361099d565b60a08301905092915050565b6000602082019050919050565b6000610a3582610953565b610a3f818561095e565b9350610a4a8361096f565b8060005b83811015610a7b578151610a628882610a05565b9750610a6d83610a1d565b925050600181019050610a4e565b5085935050505092915050565b60006020820190508181036000830152610aa28184610a2a565b905092915050565b610ab381610848565b82525050565b6000608082019050610ace6000830187610aaa565b610adb60208301866108fc565b610ae860408301856108fc565b610af560608301846108fc565b95945050505050565b600082825260208201905092915050565b7f416d6f756e74206d7573742062652067726561746572207468616e2030000000600082015250565b6000610b45601d83610afe565b9150610b5082610b0f565b602082019050919050565b60006020820190508181036000830152610b7481610b38565b9050919050565b7f436f756e74206d7573742062652067726561746572207468616e203000000000600082015250565b6000610bb1601c83610afe565b9150610bbc82610b7b565b602082019050919050565b60006020820190508181036000830152610be081610ba4565b9050919050565b7f416d6f756e74206d75737420626520657175616c20746f206d73672e76616c7560008201527f6500000000000000000000000000000000000000000000000000000000000000602082015250565b6000610c43602183610afe565b9150610c4e82610be7565b604082019050919050565b60006020820190508181036000830152610c7281610c36565b9050919050565b7f4e487b7100000000000000000000000000000000000000000000000000000000600052601160045260246000fd5b6000610cb3826107b2565b91507fffffffffffffffffffffffffffffffffffffffffffffffffffffffffffffffff8203610ce557610ce4610c79565b5b600182019050919050565b7f496e76616c696420636c61696d00000000000000000000000000000000000000600082015250565b6000610d26600d83610afe565b9150610d3182610cf0565b602082019050919050565b60006020820190508181036000830152610d5581610d19565b9050919050565b7f4e487b7100000000000000000000000000000000000000000000000000000000600052601260045260246000fd5b6000610d96826107b2565b9150610da1836107b2565b925082610db157610db0610d5c565b5b828204905092915050565b6000610dc7826107b2565b915060008203610dda57610dd9610c79565b5b600182039050919050565b6000610df0826107b2565b9150610dfb836107b2565b925082821015610e0e57610e0d610c79565b5b828203905092915050565b7f4e487b7100000000000000000000000000000000000000000000000000000000600052604160045260246000fd5b7f4e487b7100000000000000000000000000000000000000000000000000000000600052603260045260246000fdfea2646970667358221220b1c92a563606322136c2245de38c66b212be37975f7d38b0a86321582d98755e64736f6c634300080d0033",
  "immutableReferences": {},
  "source": "// SPDX-License-Identifier: MIT\r\npragma solidity ^0.8.13;\r\n\r\ncontract RedPacket {\r\n    // \r\n    mapping(uint256 => Packet) public packets;\r\n    // \r\n    mapping(uint256 => mapping(address => bool)) public packetClaims;\r\n    // ID\r\n    uint256 public packetId;\r\n    // \r\n    struct Packet {\r\n        address creator; // \r\n        uint256 amount; // \r\n        uint256 count; // \r\n        uint256 total; // \r\n    }\r\n    // \r\n    struct PacketInfo {\r\n        address creator;\r\n        uint256 amount;\r\n        uint256 count;\r\n        uint256 total;\r\n        uint256 id;\r\n    }\r\n\r\n    // \r\n    function getBalance() public view returns (uint256) {\r\n        return address(this).balance;\r\n    }\r\n\r\n    // \r\n    function createPacket(uint256 amount, uint256 count) public payable {\r\n        require(amount > 0, \"Amount must be greater than 0\");\r\n        require(count > 0, \"Count must be greater than 0\");\r\n        require(msg.value == amount, \"Amount must be equal to msg.value\");\r\n\r\n        // \r\n        Packet storage newPacket = packets[packetId];\r\n        newPacket.creator = msg.sender;\r\n        newPacket.amount = amount;\r\n        newPacket.count = count;\r\n        newPacket.total = count;\r\n\r\n        packetId++;\r\n    }\r\n\r\n    // \r\n    function claimPacket(uint256 _packetId) public {\r\n        // \r\n        Packet storage packet = packets[_packetId];\r\n\r\n        require(\r\n            packet.creator != address(0) &&\r\n                !packetClaims[_packetId][msg.sender] &&\r\n                packet.count > 0 &&\r\n                packet.amount > 0,\r\n            \"Invalid claim\"\r\n        );\r\n\r\n        // \r\n        uint256 claimAmount = packet.count == 1\r\n            ? packet.amount\r\n            : packet.amount / packet.count;\r\n\r\n        // \r\n        packet.count--;\r\n        packet.amount -= claimAmount;\r\n\r\n        // \r\n        packetClaims[_packetId][msg.sender] = true;\r\n\r\n        // \r\n        payable(msg.sender).transfer(claimAmount);\r\n    }\r\n\r\n    // \r\n    function getPackets() public view returns (PacketInfo[] memory) {\r\n        // \r\n        PacketInfo[] memory result = new PacketInfo[](packetId);\r\n\r\n        // \r\n        for (uint256 i = 0; i < packetId; i++) {\r\n            Packet storage packet = packets[i];\r\n\r\n            // \r\n            if (packet.creator != address(0)) {\r\n                result[i] = PacketInfo({\r\n                    creator: packet.creator,\r\n                    amount: packet.amount,\r\n                    count: packet.count,\r\n                    total: packet.total,\r\n                    id: i\r\n                });\r\n            }\r\n        }\r\n\r\n        return result;\r\n    }\r\n}\r\n",
  "sourcePath": "E:\\projects\\red-packet\\red-packet-solidity\\contracts\\RedPacket.sol",
  "compiler": {
    "name": "solc",
    "version": "0.8.13+commit.abaa5c0e.Emscripten.clang"
  },
  "schemaVersion": "3.4.16",
  "updatedAt": "2025-06-06T12:29:14.207Z",
  "networkType": "ethereum",
  "devdoc": {
    "kind": "dev",
    "methods": {},
    "version": 1
  },
  "userdoc": {
    "kind": "user",
    "methods": {},
    "version": 1
  }
}